:100000000C946B000C947D000C947D000C947D008E
:100010000C947D000C947D000C947D000C947D006C
:100020000C947D000C947D000C947D000C947D005C
:100030000C947D000C947D000C947D000C947D004C
:100040000C949E010C947D000C947D000C947D001A
:100050000C947D000C947D000C947D000C947D002C
:100060000C947D000C947D0005A84CCDB2D44EB903
:100070003836A9020C50B9918688083CA6AAAA2A4B
:10008000BE000000803F00000008000201000003E5
:100090000407000000000000000000000000250030
:1000A00028002B0000000000240027002A00040480
:1000B0000404040404040202020202020303030310
:1000C00003030102040810204080010204081020EC
:1000D00001020408102011241FBECFEFD8E0DEBFBC
:1000E000CDBF21E0A0E0B1E001C01D92A531B20773
:1000F000E1F70E94E8010C9497050C94000090E051
:10010000FC01EE53FF4F249182559F4FFC018491D7
:10011000882399F090E0880F991FFC01EC55FF4F60
:10012000A591B491FC01E656FF4F859194918FB74C
:10013000F894EC91E22BEC938FBF089590E0FC01D2
:10014000EA57FF4F2491FC01EE53FF4F3491FC011D
:10015000E255FF4FE491EE23C9F0222339F023301A
:1001600001F1A8F4213019F1223029F1F0E0EE0F6D
:10017000FF1FE656FF4FA591B4918FB7F894EC910D
:10018000611126C030953E233C938FBF08952730E0
:10019000A9F02830C9F0243049F7809180008F7D84
:1001A00003C0809180008F7780938000DFCF84B57B
:1001B0008F7784BDDBCF84B58F7DFBCF8091B0007E
:1001C0008F778093B000D2CF8091B0008F7DF9CF30
:1001D0003E2BDACF1F93CF93DF93182FEB010E94B2
:1001E0007F00209739F460E0812FDF91CF911F913C
:1001F0000C949E00CF3FD10511F461E0F5CFE12FC3
:10020000F0E0EA57FF4FE491E33031F140F4E130A0
:10021000B1F0E230E1F0C038D1057CF7E4CFE7304F
:1002200029F1E83059F1E430B1F780918000806223
:1002300080938000D0938B00C0938A0004C084B563
:10024000806884BDC7BDDF91CF911F91089584B5AB
:10025000806284BDC8BDF7CF8091800080688093A4
:100260008000D0938900C0938800EDCF8091B000CA
:1002700080688093B000C093B300E5CF8091B00058
:1002800080628093B000C093B400DDCF3FB7F89494
:100290008091050190910601A0910701B09108019C
:1002A00026B5A89B05C02F3F19F00196A11DB11DD1
:1002B0003FBFBA2FA92F982F8827BC01CD01620F0D
:1002C000711D811D911D42E0660F771F881F991FC8
:1002D0004A95D1F708958F929F92AF92BF92CF9295
:1002E000DF92EF92FF926B017C010E9446014B016D
:1002F0005C01C114D104E104F104B9F00E9446018B
:10030000681979098A099B09683E7340810591053E
:1003100080F321E0C21AD108E108F10888EE880EC6
:1003200083E0981EA11CB11CE4CFFF90EF90DF90FA
:10033000CF90BF90AF909F908F9008951F920F9293
:100340000FB60F9211242F933F938F939F93AF93E8
:10035000BF938091010190910201A0910301B0919E
:1003600004013091000123E0230F2D3758F5019649
:10037000A11DB11D20930001809301019093020102
:10038000A0930301B09304018091050190910601AF
:10039000A0910701B09108010196A11DB11D8093A4
:1003A000050190930601A0930701B0930801BF9146
:1003B000AF919F918F913F912F910F900FBE0F9012
:1003C0001F90189526E8230F0296A11DB11DD2CFCC
:1003D000789484B5826084BD84B5816084BD85B520
:1003E000826085BD85B5816085BD80916E0081602C
:1003F00080936E00109281008091810082608093D2
:1004000081008091810081608093810080918000D3
:100410008160809380008091B10084608093B100FE
:100420008091B00081608093B00080917A008460F8
:1004300080937A0080917A00826080937A00809124
:100440007A00816080937A0080917A00806880933E
:100450007A001092C1008BE00E947F0089E00E9428
:100460007F008AE00E947F0060E08BE00E949E0097
:1004700060E089E00E949E0060E08AE00E949E00A9
:1004800080E4782E00E010E0C12CD12C760120EE23
:100490003EE245E652E4C701B6010E949A040E947A
:1004A00007054B015C0120E030E0A9010E949504A2
:1004B000181624F0B7FAB094B7F8B09420E030E002
:1004C0004FE753E4C501B4010E949A046093090107
:1004D00070930A0180930B0190930C0122E93AE09A
:1004E00046E85FE3C701B6010E94790320EE3EE2D1
:1004F00045E652E40E949A040E9407054B015C0104
:1005000020E030E0A9010E949504181624F0B7FA03
:10051000B094B7F8B09420E030E04FE753E4C50161
:10052000B4010E949A0460930D0170930E018093B0
:100530000F019093100122E93AE046E050E4C70130
:10054000B6010E94790320EE3EE245E652E40E94A5
:100550009A040E9407054B015C0120E030E0A901EC
:100560000E949504181624F0B7FAB094B7F8B09426
:1005700020E030E04FE753E4C501B4010E949A0443
:1005800060931101709312018093130190931401F1
:1005900070927C0080917A00806480937A008091D0
:1005A0007A0086FDFCCF90917800809179008927B0
:1005B00098278927853893400CF460C06091090121
:1005C00070910A0180910B0190910C010E94EA0345
:1005D0008BE00E94EA0060910D0170910E01809104
:1005E0000F01909110010E94EA0389E00E94EA0045
:1005F0006091110170911201809113019091140189
:100600000E94EA038AE00E94EA00C9E0D1E08990F2
:100610009990A990B99020E030E040E85FE3C501EF
:10062000B4010E94E50387FF36C064E170E080E01A
:1006300090E00E946B0181E0C531D80741F761E08D
:1006400070E080E090E00E946B012CEA35EC47E21C
:1006500057E3C701B6010E9479036B017C012BEDC2
:100660003FE049E450E40E94E50387FD10CF011507
:10067000110509F409CF0E94000006CF60E08BE06D
:100680000E949E0060E089E00E949E0060E08AE097
:100690000E949E00BACF20E030E040EA50E4C5015D
:1006A000B4010E94E50387FF05C06AE070E080E0C6
:1006B00090E0BFCF20E030E040E251E4C501B4015A
:1006C0000E94E50387FF05C062E070E080E090E0F3
:1006D000B0CF20E030E048EC52E4C501B4010E9404
:1006E000E50387FFA8CF61E070E080E090E0A1CF54
:1006F0005058BB27AA270E9490030C945B040E94C9
:100700004D0438F00E94540420F039F49F3F19F44E
:1007100026F40C944A040EF4E095E7FB0C94440490
:10072000E92F0E946C0458F3BA1762077307840715
:10073000950720F079F4A6F50C948E040EF4E0955C
:100740000B2EBA2FA02D0B01B90190010C01CA018B
:10075000A0011124FF27591B99F0593F50F4503E36
:1007600068F11A16F040A22F232F342F4427585F28
:10077000F3CF469537952795A795F0405395C9F740
:100780007EF41F16BA0B620B730B840BBAF09150F8
:10079000A1F0FF0FBB1F661F771F881FC2F70EC097
:1007A000BA0F621F731F841F48F48795779567956A
:1007B000B795F7959E3F08F0B0CF9395880F08F056
:1007C0009927EE0F9795879508950E94200408F4C5
:1007D00081E008950E94F1036894B1110C948F0494
:1007E00008950E94740488F09F5798F0B92F9927B4
:1007F000B751B0F0E1F0660F771F881F991F1AF00C
:10080000BA95C9F714C0B13091F00E948E04B1E0DE
:1008100008950C948E04672F782F8827B85F39F0DD
:10082000B93FCCF3869577956795B395D9F73EF4A4
:1008300090958095709561957F4F8F4F9F4F08954C
:10084000990F0008550FAA0BE0E8FEEF16161706E1
:10085000E807F907C0F012161306E407F50798F049
:10086000621B730B840B950B39F40A2661F0232B62
:10087000242B252B21F408950A2609F4A140A695DE
:100880008FEF811D811D089597F99F6780E870E0C3
:1008900060E008959FEF80EC089500240A941616F6
:1008A000170618060906089500240A94121613065E
:1008B000140605060895092E0394000C11F48823EC
:1008C00052F0BB0F40F4BF2B11F460FF04C06F5F08
:1008D0007F4F8F4F9F4F089557FD9058440F551FDE
:1008E00059F05F3F71F04795880F97FB991F61F0B2
:1008F0009F3F79F087950895121613061406551F29
:10090000F2CF4695F1DF08C0161617061806991F94
:10091000F1CF86957105610508940895E894BB2789
:1009200066277727CB0197F908950E94200408F4E1
:100930008FEF08950E94AD040C945B040E944D0457
:1009400038F00E94540420F0952311F00C944404D4
:100950000C944A0411240C948F040E946C0470F3CC
:10096000959FC1F3950F50E0551F629FF001729F54
:10097000BB27F00DB11D639FAA27F00DB11DAA1F63
:10098000649F6627B00DA11D661F829F2227B00DB0
:10099000A11D621F739FB00DA11D621F839FA00D3B
:1009A000611D221F749F3327A00D611D231F849F8B
:1009B000600D211D822F762F6A2F11249F575040E2
:1009C0009AF0F1F088234AF0EE0FFF1FBB1F661F5D
:1009D000771F881F91505040A9F79E3F510580F026
:1009E0000C9444040C948F045F3FE4F3983ED4F3DA
:1009F000869577956795B795F795E7959F5FC1F7CA
:100A0000FE2B880F911D9695879597F908959F93D2
:100A10000E9411050F9007FCEE5F0C943A050C94B0
:100A20004A040E947404D8F3E894E0E0BB279F577F
:100A3000F0F02AED3FE049EC06C0EE0FBB0F661F59
:100A4000771F881F28F0B23A62077307840728F0DF
:100A5000B25A620B730B840BE3959A9572F7803848
:100A600030F49A95BB0F661F771F881FD2F7904806
:100A70000C945005EF93E0FF07C0A2EA2AED3FE097
:100A800049EC5FEB0E9490030E945B040F9003947B
:100A900001FC9058E8E6F0E00C945C059F3F31F0D3
:100AA000915020F4879577956795B795880F911D9C
:100AB0009695879597F908959F938F937F936F935A
:100AC000FF93EF939B01AC010E949A04EF91FF9179
:100AD0000E9470052F913F914F915F910C949A0461
:100AE000DF93CF931F930F93FF92EF92DF927B01DF
:100AF0008C01689406C0DA2EEF010E94AD04FE015D
:100B0000E894A5912591359145915591A6F3EF0172
:100B10000E949003FE019701A801DA9469F7DF9023
:100B2000EF90FF900F911F91CF91DF910895F8946E
:020B3000FFCFF5
:00000001FF
